{"contracts/lottery.sol":{"Lottery":{"abi":[{"inputs":[{"internalType":"uint256","name":"entranceFee","type":"uint256"},{"internalType":"address","name":"vrfCoodAddress","type":"address"},{"internalType":"bytes32","name":"keyHash","type":"bytes32"},{"internalType":"uint64","name":"subId","type":"uint64"},{"internalType":"uint32","name":"callBackGasLimit","type":"uint32"},{"internalType":"uint256","name":"interval","type":"uint256"}],"stateMutability":"nonpayable","type":"constructor"},{"inputs":[],"name":"Lottery_NotOpen","type":"error"},{"inputs":[],"name":"Lottery_notEnoughToken","type":"error"},{"inputs":[],"name":"Lottery_transactionFailed","type":"error"},{"inputs":[{"internalType":"uint256","name":"balance","type":"uint256"},{"internalType":"uint256","name":"state","type":"uint256"},{"internalType":"uint256","name":"players","type":"uint256"}],"name":"Lottery_upkeepNotNeeded","type":"error"},{"inputs":[{"internalType":"address","name":"have","type":"address"},{"internalType":"address","name":"want","type":"address"}],"name":"OnlyCoordinatorCanFulfill","type":"error"},{"anonymous":false,"inputs":[{"indexed":true,"internalType":"address","name":"lotteryWinnerAddress","type":"address"}],"name":"lotteryWinner","type":"event"},{"anonymous":false,"inputs":[{"indexed":true,"internalType":"address","name":"registeredPlayers","type":"address"}],"name":"registeredPlayers","type":"event"},{"anonymous":false,"inputs":[{"indexed":true,"internalType":"uint256","name":"requestId","type":"uint256"}],"name":"requestIdReceived","type":"event"},{"inputs":[{"internalType":"bytes","name":"","type":"bytes"}],"name":"checkUpkeep","outputs":[{"internalType":"bool","name":"upKeepNeeded","type":"bool"},{"internalType":"bytes","name":"","type":"bytes"}],"stateMutability":"view","type":"function"},{"inputs":[],"name":"i_entranceFee","outputs":[{"internalType":"uint256","name":"","type":"uint256"}],"stateMutability":"view","type":"function"},{"inputs":[],"name":"pay","outputs":[],"stateMutability":"payable","type":"function"},{"inputs":[{"internalType":"bytes","name":"","type":"bytes"}],"name":"performUpkeep","outputs":[],"stateMutability":"nonpayable","type":"function"},{"inputs":[{"internalType":"uint256","name":"requestId","type":"uint256"},{"internalType":"uint256[]","name":"randomWords","type":"uint256[]"}],"name":"rawFulfillRandomWords","outputs":[],"stateMutability":"nonpayable","type":"function"}],"devdoc":{"kind":"dev","methods":{},"version":1},"evm":{"bytecode":{"linkReferences":{},"object":"610180604052600163ffffffff166101609063ffffffff168152503480156200002757600080fd5b50604051620014463803806200144683398181016040528101906200004d9190620002a9565b848073ffffffffffffffffffffffffffffffffffffffff1660808173ffffffffffffffffffffffffffffffffffffffff1681525050508560a081815250506000600160006101000a81548160ff02191690836001811115620000b457620000b362000345565b5b02179055508473ffffffffffffffffffffffffffffffffffffffff1660c08173ffffffffffffffffffffffffffffffffffffffff16815250508361010081815250508267ffffffffffffffff166101208167ffffffffffffffff16815250508163ffffffff166101408163ffffffff16815250508060e081815250504260038190555050505050505062000374565b600080fd5b6000819050919050565b6200015d8162000148565b81146200016957600080fd5b50565b6000815190506200017d8162000152565b92915050565b600073ffffffffffffffffffffffffffffffffffffffff82169050919050565b6000620001b08262000183565b9050919050565b620001c281620001a3565b8114620001ce57600080fd5b50565b600081519050620001e281620001b7565b92915050565b6000819050919050565b620001fd81620001e8565b81146200020957600080fd5b50565b6000815190506200021d81620001f2565b92915050565b600067ffffffffffffffff82169050919050565b620002428162000223565b81146200024e57600080fd5b50565b600081519050620002628162000237565b92915050565b600063ffffffff82169050919050565b620002838162000268565b81146200028f57600080fd5b50565b600081519050620002a38162000278565b92915050565b60008060008060008060c08789031215620002c957620002c862000143565b5b6000620002d989828a016200016c565b9650506020620002ec89828a01620001d1565b9550506040620002ff89828a016200020c565b94505060606200031289828a0162000251565b93505060806200032589828a0162000292565b92505060a06200033889828a016200016c565b9150509295509295509295565b7f4e487b7100000000000000000000000000000000000000000000000000000000600052602160045260246000fd5b60805160a05160c05160e0516101005161012051610140516101605161105e620003e86000396000610495015260006104740152600061045101526000610430015260006105cf015260006103f4015260008181610183015261062801526000818161028501526102d9015261105e6000f3fe60806040526004361061004a5760003560e01c80631b9265b81461004f5780631fe543e3146100595780634585e33b146100825780636e04ff0d146100ab5780637ea3e6c1146100e9575b600080fd5b610057610114565b005b34801561006557600080fd5b50610080600480360381019061007b9190610ac5565b610283565b005b34801561008e57600080fd5b506100a960048036038101906100a49190610bd6565b610343565b005b3480156100b757600080fd5b506100d260048036038101906100cd9190610bd6565b61057a565b6040516100e0929190610cb9565b60405180910390f35b3480156100f557600080fd5b506100fe610626565b60405161010b9190610cf8565b60405180910390f35b6000600181111561012857610127610d13565b5b600160009054906101000a900460ff16600181111561014a57610149610d13565b5b14610181576040517f732acd4a00000000000000000000000000000000000000000000000000000000815260040160405180910390fd5b7f00000000000000000000000000000000000000000000000000000000000000003410156101db576040517f2849030400000000000000000000000000000000000000000000000000000000815260040160405180910390fd5b6000339080600181540180825580915050600190039060005260206000200160009091909190916101000a81548173ffffffffffffffffffffffffffffffffffffffff021916908373ffffffffffffffffffffffffffffffffffffffff1602179055503373ffffffffffffffffffffffffffffffffffffffff167f4bafce225aad9a1b12c6653406881a07c12e107c8e85890a1fae0c6c73783baf60405160405180910390a2565b7f000000000000000000000000000000000000000000000000000000000000000073ffffffffffffffffffffffffffffffffffffffff163373ffffffffffffffffffffffffffffffffffffffff161461033557337f00000000000000000000000000000000000000000000000000000000000000006040517f1cf993f400000000000000000000000000000000000000000000000000000000815260040161032c929190610d83565b60405180910390fd5b61033f828261064a565b5050565b60006103836040518060400160405280600281526020017f307800000000000000000000000000000000000000000000000000000000000081525061057a565b509050806103f25747600160009054906101000a900460ff1660018111156103ae576103ad610d13565b5b6000805490506040517fa5a3fe4b0000000000000000000000000000000000000000000000000000000081526004016103e993929190610dac565b60405180910390fd5b7f000000000000000000000000000000000000000000000000000000000000000073ffffffffffffffffffffffffffffffffffffffff16635d3b1d307f00000000000000000000000000000000000000000000000000000000000000007f000000000000000000000000000000000000000000000000000000000000000060037f00000000000000000000000000000000000000000000000000000000000000007f00000000000000000000000000000000000000000000000000000000000000006040518663ffffffff1660e01b81526004016104d4959493929190610e5b565b6020604051808303816000875af11580156104f3573d6000803e3d6000fd5b505050506040513d601f19601f820116820180604052508101906105179190610ec3565b60028190555060018060006101000a81548160ff0219169083600181111561054257610541610d13565b5b02179055506002547f1a705c7a00579d64029d06de9bad180b46279572d543e850b1a642d86f02edca60405160405180910390a25050565b600060606000804711905060008060008054905011905060008060018111156105a6576105a5610d13565b5b600160009054906101000a900460ff1660018111156105c8576105c7610d13565b5b14905060007f0000000000000000000000000000000000000000000000000000000000000000600354426105fc9190610f1f565b1190508380156106095750825b80156106125750815b801561061b5750805b955050505050915091565b7f000000000000000000000000000000000000000000000000000000000000000081565b600080805490508260008151811061066557610664610f53565b5b60200260200101516106779190610fb1565b9050600080828154811061068e5761068d610f53565b5b9060005260206000200160009054906101000a900473ffffffffffffffffffffffffffffffffffffffff16905080600460006101000a81548173ffffffffffffffffffffffffffffffffffffffff021916908373ffffffffffffffffffffffffffffffffffffffff16021790555060008173ffffffffffffffffffffffffffffffffffffffff164760405161072290611013565b60006040518083038185875af1925050503d806000811461075f576040519150601f19603f3d011682016040523d82523d6000602084013e610764565b606091505b505090508061079f576040517fe649b36700000000000000000000000000000000000000000000000000000000815260040160405180910390fd5b600067ffffffffffffffff8111156107ba576107b9610982565b5b6040519080825280602002602001820160405280156107e85781602001602082028036833780820191505090505b50600090805190602001906107fe92919061087b565b50426003819055506000600160006101000a81548160ff0219169083600181111561082c5761082b610d13565b5b02179055508173ffffffffffffffffffffffffffffffffffffffff167f43450afea3c4fa1ac0879b13f5656d98efcb0b46541906f4a12654fb1686968e60405160405180910390a25050505050565b8280548282559060005260206000209081019282156108f4579160200282015b828111156108f35782518260006101000a81548173ffffffffffffffffffffffffffffffffffffffff021916908373ffffffffffffffffffffffffffffffffffffffff1602179055509160200191906001019061089b565b5b5090506109019190610905565b5090565b5b8082111561091e576000816000905550600101610906565b5090565b6000604051905090565b600080fd5b600080fd5b6000819050919050565b61094981610936565b811461095457600080fd5b50565b60008135905061096681610940565b92915050565b600080fd5b6000601f19601f8301169050919050565b7f4e487b7100000000000000000000000000000000000000000000000000000000600052604160045260246000fd5b6109ba82610971565b810181811067ffffffffffffffff821117156109d9576109d8610982565b5b80604052505050565b60006109ec610922565b90506109f882826109b1565b919050565b600067ffffffffffffffff821115610a1857610a17610982565b5b602082029050602081019050919050565b600080fd5b6000610a41610a3c846109fd565b6109e2565b90508083825260208201905060208402830185811115610a6457610a63610a29565b5b835b81811015610a8d5780610a798882610957565b845260208401935050602081019050610a66565b5050509392505050565b600082601f830112610aac57610aab61096c565b5b8135610abc848260208601610a2e565b91505092915050565b60008060408385031215610adc57610adb61092c565b5b6000610aea85828601610957565b925050602083013567ffffffffffffffff811115610b0b57610b0a610931565b5b610b1785828601610a97565b9150509250929050565b600080fd5b600067ffffffffffffffff821115610b4157610b40610982565b5b610b4a82610971565b9050602081019050919050565b82818337600083830152505050565b6000610b79610b7484610b26565b6109e2565b905082815260208101848484011115610b9557610b94610b21565b5b610ba0848285610b57565b509392505050565b600082601f830112610bbd57610bbc61096c565b5b8135610bcd848260208601610b66565b91505092915050565b600060208284031215610bec57610beb61092c565b5b600082013567ffffffffffffffff811115610c0a57610c09610931565b5b610c1684828501610ba8565b91505092915050565b60008115159050919050565b610c3481610c1f565b82525050565b600081519050919050565b600082825260208201905092915050565b60005b83811015610c74578082015181840152602081019050610c59565b60008484015250505050565b6000610c8b82610c3a565b610c958185610c45565b9350610ca5818560208601610c56565b610cae81610971565b840191505092915050565b6000604082019050610cce6000830185610c2b565b8181036020830152610ce08184610c80565b90509392505050565b610cf281610936565b82525050565b6000602082019050610d0d6000830184610ce9565b92915050565b7f4e487b7100000000000000000000000000000000000000000000000000000000600052602160045260246000fd5b600073ffffffffffffffffffffffffffffffffffffffff82169050919050565b6000610d6d82610d42565b9050919050565b610d7d81610d62565b82525050565b6000604082019050610d986000830185610d74565b610da56020830184610d74565b9392505050565b6000606082019050610dc16000830186610ce9565b610dce6020830185610ce9565b610ddb6040830184610ce9565b949350505050565b6000819050919050565b610df681610de3565b82525050565b600067ffffffffffffffff82169050919050565b610e1981610dfc565b82525050565b600061ffff82169050919050565b610e3681610e1f565b82525050565b600063ffffffff82169050919050565b610e5581610e3c565b82525050565b600060a082019050610e706000830188610ded565b610e7d6020830187610e10565b610e8a6040830186610e2d565b610e976060830185610e4c565b610ea46080830184610e4c565b9695505050505050565b600081519050610ebd81610940565b92915050565b600060208284031215610ed957610ed861092c565b5b6000610ee784828501610eae565b91505092915050565b7f4e487b7100000000000000000000000000000000000000000000000000000000600052601160045260246000fd5b6000610f2a82610936565b9150610f3583610936565b9250828203905081811115610f4d57610f4c610ef0565b5b92915050565b7f4e487b7100000000000000000000000000000000000000000000000000000000600052603260045260246000fd5b7f4e487b7100000000000000000000000000000000000000000000000000000000600052601260045260246000fd5b6000610fbc82610936565b9150610fc783610936565b925082610fd757610fd6610f82565b5b828206905092915050565b600081905092915050565b50565b6000610ffd600083610fe2565b915061100882610fed565b600082019050919050565b600061101e82610ff0565b915081905091905056fea26469706673582212207c3f38c78f938aa77aec7348e3a7d419b5d6201fffceff069b6559c3754ed44764736f6c63430008110033","opcodes":"PUSH2 0x180 PUSH1 0x40 MSTORE PUSH1 0x1 PUSH4 0xFFFFFFFF AND PUSH2 0x160 SWAP1 PUSH4 0xFFFFFFFF AND DUP2 MSTORE POP CALLVALUE DUP1 ISZERO PUSH3 0x27 JUMPI PUSH1 0x0 DUP1 REVERT JUMPDEST POP PUSH1 0x40 MLOAD PUSH3 0x1446 CODESIZE SUB DUP1 PUSH3 0x1446 DUP4 CODECOPY DUP2 DUP2 ADD PUSH1 0x40 MSTORE DUP2 ADD SWAP1 PUSH3 0x4D SWAP2 SWAP1 PUSH3 0x2A9 JUMP JUMPDEST DUP5 DUP1 PUSH20 0xFFFFFFFFFFFFFFFFFFFFFFFFFFFFFFFFFFFFFFFF AND PUSH1 0x80 DUP2 PUSH20 0xFFFFFFFFFFFFFFFFFFFFFFFFFFFFFFFFFFFFFFFF AND DUP2 MSTORE POP POP POP DUP6 PUSH1 0xA0 DUP2 DUP2 MSTORE POP POP PUSH1 0x0 PUSH1 0x1 PUSH1 0x0 PUSH2 0x100 EXP DUP2 SLOAD DUP2 PUSH1 0xFF MUL NOT AND SWAP1 DUP4 PUSH1 0x1 DUP2 GT ISZERO PUSH3 0xB4 JUMPI PUSH3 0xB3 PUSH3 0x345 JUMP JUMPDEST JUMPDEST MUL OR SWAP1 SSTORE POP DUP5 PUSH20 0xFFFFFFFFFFFFFFFFFFFFFFFFFFFFFFFFFFFFFFFF AND PUSH1 0xC0 DUP2 PUSH20 0xFFFFFFFFFFFFFFFFFFFFFFFFFFFFFFFFFFFFFFFF AND DUP2 MSTORE POP POP DUP4 PUSH2 0x100 DUP2 DUP2 MSTORE POP POP DUP3 PUSH8 0xFFFFFFFFFFFFFFFF AND PUSH2 0x120 DUP2 PUSH8 0xFFFFFFFFFFFFFFFF AND DUP2 MSTORE POP POP DUP2 PUSH4 0xFFFFFFFF AND PUSH2 0x140 DUP2 PUSH4 0xFFFFFFFF AND DUP2 MSTORE POP POP DUP1 PUSH1 0xE0 DUP2 DUP2 MSTORE POP POP TIMESTAMP PUSH1 0x3 DUP2 SWAP1 SSTORE POP POP POP POP POP POP POP PUSH3 0x374 JUMP JUMPDEST PUSH1 0x0 DUP1 REVERT JUMPDEST PUSH1 0x0 DUP2 SWAP1 POP SWAP2 SWAP1 POP JUMP JUMPDEST PUSH3 0x15D DUP2 PUSH3 0x148 JUMP JUMPDEST DUP2 EQ PUSH3 0x169 JUMPI PUSH1 0x0 DUP1 REVERT JUMPDEST POP JUMP JUMPDEST PUSH1 0x0 DUP2 MLOAD SWAP1 POP PUSH3 0x17D DUP2 PUSH3 0x152 JUMP JUMPDEST SWAP3 SWAP2 POP POP JUMP JUMPDEST PUSH1 0x0 PUSH20 0xFFFFFFFFFFFFFFFFFFFFFFFFFFFFFFFFFFFFFFFF DUP3 AND SWAP1 POP SWAP2 SWAP1 POP JUMP JUMPDEST PUSH1 0x0 PUSH3 0x1B0 DUP3 PUSH3 0x183 JUMP JUMPDEST SWAP1 POP SWAP2 SWAP1 POP JUMP JUMPDEST PUSH3 0x1C2 DUP2 PUSH3 0x1A3 JUMP JUMPDEST DUP2 EQ PUSH3 0x1CE JUMPI PUSH1 0x0 DUP1 REVERT JUMPDEST POP JUMP JUMPDEST PUSH1 0x0 DUP2 MLOAD SWAP1 POP PUSH3 0x1E2 DUP2 PUSH3 0x1B7 JUMP JUMPDEST SWAP3 SWAP2 POP POP JUMP JUMPDEST PUSH1 0x0 DUP2 SWAP1 POP SWAP2 SWAP1 POP JUMP JUMPDEST PUSH3 0x1FD DUP2 PUSH3 0x1E8 JUMP JUMPDEST DUP2 EQ PUSH3 0x209 JUMPI PUSH1 0x0 DUP1 REVERT JUMPDEST POP JUMP JUMPDEST PUSH1 0x0 DUP2 MLOAD SWAP1 POP PUSH3 0x21D DUP2 PUSH3 0x1F2 JUMP JUMPDEST SWAP3 SWAP2 POP POP JUMP JUMPDEST PUSH1 0x0 PUSH8 0xFFFFFFFFFFFFFFFF DUP3 AND SWAP1 POP SWAP2 SWAP1 POP JUMP JUMPDEST PUSH3 0x242 DUP2 PUSH3 0x223 JUMP JUMPDEST DUP2 EQ PUSH3 0x24E JUMPI PUSH1 0x0 DUP1 REVERT JUMPDEST POP JUMP JUMPDEST PUSH1 0x0 DUP2 MLOAD SWAP1 POP PUSH3 0x262 DUP2 PUSH3 0x237 JUMP JUMPDEST SWAP3 SWAP2 POP POP JUMP JUMPDEST PUSH1 0x0 PUSH4 0xFFFFFFFF DUP3 AND SWAP1 POP SWAP2 SWAP1 POP JUMP JUMPDEST PUSH3 0x283 DUP2 PUSH3 0x268 JUMP JUMPDEST DUP2 EQ PUSH3 0x28F JUMPI PUSH1 0x0 DUP1 REVERT JUMPDEST POP JUMP JUMPDEST PUSH1 0x0 DUP2 MLOAD SWAP1 POP PUSH3 0x2A3 DUP2 PUSH3 0x278 JUMP JUMPDEST SWAP3 SWAP2 POP POP JUMP JUMPDEST PUSH1 0x0 DUP1 PUSH1 0x0 DUP1 PUSH1 0x0 DUP1 PUSH1 0xC0 DUP8 DUP10 SUB SLT ISZERO PUSH3 0x2C9 JUMPI PUSH3 0x2C8 PUSH3 0x143 JUMP JUMPDEST JUMPDEST PUSH1 0x0 PUSH3 0x2D9 DUP10 DUP3 DUP11 ADD PUSH3 0x16C JUMP JUMPDEST SWAP7 POP POP PUSH1 0x20 PUSH3 0x2EC DUP10 DUP3 DUP11 ADD PUSH3 0x1D1 JUMP JUMPDEST SWAP6 POP POP PUSH1 0x40 PUSH3 0x2FF DUP10 DUP3 DUP11 ADD PUSH3 0x20C JUMP JUMPDEST SWAP5 POP POP PUSH1 0x60 PUSH3 0x312 DUP10 DUP3 DUP11 ADD PUSH3 0x251 JUMP JUMPDEST SWAP4 POP POP PUSH1 0x80 PUSH3 0x325 DUP10 DUP3 DUP11 ADD PUSH3 0x292 JUMP JUMPDEST SWAP3 POP POP PUSH1 0xA0 PUSH3 0x338 DUP10 DUP3 DUP11 ADD PUSH3 0x16C JUMP JUMPDEST SWAP2 POP POP SWAP3 SWAP6 POP SWAP3 SWAP6 POP SWAP3 SWAP6 JUMP JUMPDEST PUSH32 0x4E487B7100000000000000000000000000000000000000000000000000000000 PUSH1 0x0 MSTORE PUSH1 0x21 PUSH1 0x4 MSTORE PUSH1 0x24 PUSH1 0x0 REVERT JUMPDEST PUSH1 0x80 MLOAD PUSH1 0xA0 MLOAD PUSH1 0xC0 MLOAD PUSH1 0xE0 MLOAD PUSH2 0x100 MLOAD PUSH2 0x120 MLOAD PUSH2 0x140 MLOAD PUSH2 0x160 MLOAD PUSH2 0x105E PUSH3 0x3E8 PUSH1 0x0 CODECOPY PUSH1 0x0 PUSH2 0x495 ADD MSTORE PUSH1 0x0 PUSH2 0x474 ADD MSTORE PUSH1 0x0 PUSH2 0x451 ADD MSTORE PUSH1 0x0 PUSH2 0x430 ADD MSTORE PUSH1 0x0 PUSH2 0x5CF ADD MSTORE PUSH1 0x0 PUSH2 0x3F4 ADD MSTORE PUSH1 0x0 DUP2 DUP2 PUSH2 0x183 ADD MSTORE PUSH2 0x628 ADD MSTORE PUSH1 0x0 DUP2 DUP2 PUSH2 0x285 ADD MSTORE PUSH2 0x2D9 ADD MSTORE PUSH2 0x105E PUSH1 0x0 RETURN INVALID PUSH1 0x80 PUSH1 0x40 MSTORE PUSH1 0x4 CALLDATASIZE LT PUSH2 0x4A JUMPI PUSH1 0x0 CALLDATALOAD PUSH1 0xE0 SHR DUP1 PUSH4 0x1B9265B8 EQ PUSH2 0x4F JUMPI DUP1 PUSH4 0x1FE543E3 EQ PUSH2 0x59 JUMPI DUP1 PUSH4 0x4585E33B EQ PUSH2 0x82 JUMPI DUP1 PUSH4 0x6E04FF0D EQ PUSH2 0xAB JUMPI DUP1 PUSH4 0x7EA3E6C1 EQ PUSH2 0xE9 JUMPI JUMPDEST PUSH1 0x0 DUP1 REVERT JUMPDEST PUSH2 0x57 PUSH2 0x114 JUMP JUMPDEST STOP JUMPDEST CALLVALUE DUP1 ISZERO PUSH2 0x65 JUMPI PUSH1 0x0 DUP1 REVERT JUMPDEST POP PUSH2 0x80 PUSH1 0x4 DUP1 CALLDATASIZE SUB DUP2 ADD SWAP1 PUSH2 0x7B SWAP2 SWAP1 PUSH2 0xAC5 JUMP JUMPDEST PUSH2 0x283 JUMP JUMPDEST STOP JUMPDEST CALLVALUE DUP1 ISZERO PUSH2 0x8E JUMPI PUSH1 0x0 DUP1 REVERT JUMPDEST POP PUSH2 0xA9 PUSH1 0x4 DUP1 CALLDATASIZE SUB DUP2 ADD SWAP1 PUSH2 0xA4 SWAP2 SWAP1 PUSH2 0xBD6 JUMP JUMPDEST PUSH2 0x343 JUMP JUMPDEST STOP JUMPDEST CALLVALUE DUP1 ISZERO PUSH2 0xB7 JUMPI PUSH1 0x0 DUP1 REVERT JUMPDEST POP PUSH2 0xD2 PUSH1 0x4 DUP1 CALLDATASIZE SUB DUP2 ADD SWAP1 PUSH2 0xCD SWAP2 SWAP1 PUSH2 0xBD6 JUMP JUMPDEST PUSH2 0x57A JUMP JUMPDEST PUSH1 0x40 MLOAD PUSH2 0xE0 SWAP3 SWAP2 SWAP1 PUSH2 0xCB9 JUMP JUMPDEST PUSH1 0x40 MLOAD DUP1 SWAP2 SUB SWAP1 RETURN JUMPDEST CALLVALUE DUP1 ISZERO PUSH2 0xF5 JUMPI PUSH1 0x0 DUP1 REVERT JUMPDEST POP PUSH2 0xFE PUSH2 0x626 JUMP JUMPDEST PUSH1 0x40 MLOAD PUSH2 0x10B SWAP2 SWAP1 PUSH2 0xCF8 JUMP JUMPDEST PUSH1 0x40 MLOAD DUP1 SWAP2 SUB SWAP1 RETURN JUMPDEST PUSH1 0x0 PUSH1 0x1 DUP2 GT ISZERO PUSH2 0x128 JUMPI PUSH2 0x127 PUSH2 0xD13 JUMP JUMPDEST JUMPDEST PUSH1 0x1 PUSH1 0x0 SWAP1 SLOAD SWAP1 PUSH2 0x100 EXP SWAP1 DIV PUSH1 0xFF AND PUSH1 0x1 DUP2 GT ISZERO PUSH2 0x14A JUMPI PUSH2 0x149 PUSH2 0xD13 JUMP JUMPDEST JUMPDEST EQ PUSH2 0x181 JUMPI PUSH1 0x40 MLOAD PUSH32 0x732ACD4A00000000000000000000000000000000000000000000000000000000 DUP2 MSTORE PUSH1 0x4 ADD PUSH1 0x40 MLOAD DUP1 SWAP2 SUB SWAP1 REVERT JUMPDEST PUSH32 0x0 CALLVALUE LT ISZERO PUSH2 0x1DB JUMPI PUSH1 0x40 MLOAD PUSH32 0x2849030400000000000000000000000000000000000000000000000000000000 DUP2 MSTORE PUSH1 0x4 ADD PUSH1 0x40 MLOAD DUP1 SWAP2 SUB SWAP1 REVERT JUMPDEST PUSH1 0x0 CALLER SWAP1 DUP1 PUSH1 0x1 DUP2 SLOAD ADD DUP1 DUP3 SSTORE DUP1 SWAP2 POP POP PUSH1 0x1 SWAP1 SUB SWAP1 PUSH1 0x0 MSTORE PUSH1 0x20 PUSH1 0x0 KECCAK256 ADD PUSH1 0x0 SWAP1 SWAP2 SWAP1 SWAP2 SWAP1 SWAP2 PUSH2 0x100 EXP DUP2 SLOAD DUP2 PUSH20 0xFFFFFFFFFFFFFFFFFFFFFFFFFFFFFFFFFFFFFFFF MUL NOT AND SWAP1 DUP4 PUSH20 0xFFFFFFFFFFFFFFFFFFFFFFFFFFFFFFFFFFFFFFFF AND MUL OR SWAP1 SSTORE POP CALLER PUSH20 0xFFFFFFFFFFFFFFFFFFFFFFFFFFFFFFFFFFFFFFFF AND PUSH32 0x4BAFCE225AAD9A1B12C6653406881A07C12E107C8E85890A1FAE0C6C73783BAF PUSH1 0x40 MLOAD PUSH1 0x40 MLOAD DUP1 SWAP2 SUB SWAP1 LOG2 JUMP JUMPDEST PUSH32 0x0 PUSH20 0xFFFFFFFFFFFFFFFFFFFFFFFFFFFFFFFFFFFFFFFF AND CALLER PUSH20 0xFFFFFFFFFFFFFFFFFFFFFFFFFFFFFFFFFFFFFFFF AND EQ PUSH2 0x335 JUMPI CALLER PUSH32 0x0 PUSH1 0x40 MLOAD PUSH32 0x1CF993F400000000000000000000000000000000000000000000000000000000 DUP2 MSTORE PUSH1 0x4 ADD PUSH2 0x32C SWAP3 SWAP2 SWAP1 PUSH2 0xD83 JUMP JUMPDEST PUSH1 0x40 MLOAD DUP1 SWAP2 SUB SWAP1 REVERT JUMPDEST PUSH2 0x33F DUP3 DUP3 PUSH2 0x64A JUMP JUMPDEST POP POP JUMP JUMPDEST PUSH1 0x0 PUSH2 0x383 PUSH1 0x40 MLOAD DUP1 PUSH1 0x40 ADD PUSH1 0x40 MSTORE DUP1 PUSH1 0x2 DUP2 MSTORE PUSH1 0x20 ADD PUSH32 0x3078000000000000000000000000000000000000000000000000000000000000 DUP2 MSTORE POP PUSH2 0x57A JUMP JUMPDEST POP SWAP1 POP DUP1 PUSH2 0x3F2 JUMPI SELFBALANCE PUSH1 0x1 PUSH1 0x0 SWAP1 SLOAD SWAP1 PUSH2 0x100 EXP SWAP1 DIV PUSH1 0xFF AND PUSH1 0x1 DUP2 GT ISZERO PUSH2 0x3AE JUMPI PUSH2 0x3AD PUSH2 0xD13 JUMP JUMPDEST JUMPDEST PUSH1 0x0 DUP1 SLOAD SWAP1 POP PUSH1 0x40 MLOAD PUSH32 0xA5A3FE4B00000000000000000000000000000000000000000000000000000000 DUP2 MSTORE PUSH1 0x4 ADD PUSH2 0x3E9 SWAP4 SWAP3 SWAP2 SWAP1 PUSH2 0xDAC JUMP JUMPDEST PUSH1 0x40 MLOAD DUP1 SWAP2 SUB SWAP1 REVERT JUMPDEST PUSH32 0x0 PUSH20 0xFFFFFFFFFFFFFFFFFFFFFFFFFFFFFFFFFFFFFFFF AND PUSH4 0x5D3B1D30 PUSH32 0x0 PUSH32 0x0 PUSH1 0x3 PUSH32 0x0 PUSH32 0x0 PUSH1 0x40 MLOAD DUP7 PUSH4 0xFFFFFFFF AND PUSH1 0xE0 SHL DUP2 MSTORE PUSH1 0x4 ADD PUSH2 0x4D4 SWAP6 SWAP5 SWAP4 SWAP3 SWAP2 SWAP1 PUSH2 0xE5B JUMP JUMPDEST PUSH1 0x20 PUSH1 0x40 MLOAD DUP1 DUP4 SUB DUP2 PUSH1 0x0 DUP8 GAS CALL ISZERO DUP1 ISZERO PUSH2 0x4F3 JUMPI RETURNDATASIZE PUSH1 0x0 DUP1 RETURNDATACOPY RETURNDATASIZE PUSH1 0x0 REVERT JUMPDEST POP POP POP POP PUSH1 0x40 MLOAD RETURNDATASIZE PUSH1 0x1F NOT PUSH1 0x1F DUP3 ADD AND DUP3 ADD DUP1 PUSH1 0x40 MSTORE POP DUP2 ADD SWAP1 PUSH2 0x517 SWAP2 SWAP1 PUSH2 0xEC3 JUMP JUMPDEST PUSH1 0x2 DUP2 SWAP1 SSTORE POP PUSH1 0x1 DUP1 PUSH1 0x0 PUSH2 0x100 EXP DUP2 SLOAD DUP2 PUSH1 0xFF MUL NOT AND SWAP1 DUP4 PUSH1 0x1 DUP2 GT ISZERO PUSH2 0x542 JUMPI PUSH2 0x541 PUSH2 0xD13 JUMP JUMPDEST JUMPDEST MUL OR SWAP1 SSTORE POP PUSH1 0x2 SLOAD PUSH32 0x1A705C7A00579D64029D06DE9BAD180B46279572D543E850B1A642D86F02EDCA PUSH1 0x40 MLOAD PUSH1 0x40 MLOAD DUP1 SWAP2 SUB SWAP1 LOG2 POP POP JUMP JUMPDEST PUSH1 0x0 PUSH1 0x60 PUSH1 0x0 DUP1 SELFBALANCE GT SWAP1 POP PUSH1 0x0 DUP1 PUSH1 0x0 DUP1 SLOAD SWAP1 POP GT SWAP1 POP PUSH1 0x0 DUP1 PUSH1 0x1 DUP2 GT ISZERO PUSH2 0x5A6 JUMPI PUSH2 0x5A5 PUSH2 0xD13 JUMP JUMPDEST JUMPDEST PUSH1 0x1 PUSH1 0x0 SWAP1 SLOAD SWAP1 PUSH2 0x100 EXP SWAP1 DIV PUSH1 0xFF AND PUSH1 0x1 DUP2 GT ISZERO PUSH2 0x5C8 JUMPI PUSH2 0x5C7 PUSH2 0xD13 JUMP JUMPDEST JUMPDEST EQ SWAP1 POP PUSH1 0x0 PUSH32 0x0 PUSH1 0x3 SLOAD TIMESTAMP PUSH2 0x5FC SWAP2 SWAP1 PUSH2 0xF1F JUMP JUMPDEST GT SWAP1 POP DUP4 DUP1 ISZERO PUSH2 0x609 JUMPI POP DUP3 JUMPDEST DUP1 ISZERO PUSH2 0x612 JUMPI POP DUP2 JUMPDEST DUP1 ISZERO PUSH2 0x61B JUMPI POP DUP1 JUMPDEST SWAP6 POP POP POP POP POP SWAP2 POP SWAP2 JUMP JUMPDEST PUSH32 0x0 DUP2 JUMP JUMPDEST PUSH1 0x0 DUP1 DUP1 SLOAD SWAP1 POP DUP3 PUSH1 0x0 DUP2 MLOAD DUP2 LT PUSH2 0x665 JUMPI PUSH2 0x664 PUSH2 0xF53 JUMP JUMPDEST JUMPDEST PUSH1 0x20 MUL PUSH1 0x20 ADD ADD MLOAD PUSH2 0x677 SWAP2 SWAP1 PUSH2 0xFB1 JUMP JUMPDEST SWAP1 POP PUSH1 0x0 DUP1 DUP3 DUP2 SLOAD DUP2 LT PUSH2 0x68E JUMPI PUSH2 0x68D PUSH2 0xF53 JUMP JUMPDEST JUMPDEST SWAP1 PUSH1 0x0 MSTORE PUSH1 0x20 PUSH1 0x0 KECCAK256 ADD PUSH1 0x0 SWAP1 SLOAD SWAP1 PUSH2 0x100 EXP SWAP1 DIV PUSH20 0xFFFFFFFFFFFFFFFFFFFFFFFFFFFFFFFFFFFFFFFF AND SWAP1 POP DUP1 PUSH1 0x4 PUSH1 0x0 PUSH2 0x100 EXP DUP2 SLOAD DUP2 PUSH20 0xFFFFFFFFFFFFFFFFFFFFFFFFFFFFFFFFFFFFFFFF MUL NOT AND SWAP1 DUP4 PUSH20 0xFFFFFFFFFFFFFFFFFFFFFFFFFFFFFFFFFFFFFFFF AND MUL OR SWAP1 SSTORE POP PUSH1 0x0 DUP2 PUSH20 0xFFFFFFFFFFFFFFFFFFFFFFFFFFFFFFFFFFFFFFFF AND SELFBALANCE PUSH1 0x40 MLOAD PUSH2 0x722 SWAP1 PUSH2 0x1013 JUMP JUMPDEST PUSH1 0x0 PUSH1 0x40 MLOAD DUP1 DUP4 SUB DUP2 DUP6 DUP8 GAS CALL SWAP3 POP POP POP RETURNDATASIZE DUP1 PUSH1 0x0 DUP2 EQ PUSH2 0x75F JUMPI PUSH1 0x40 MLOAD SWAP2 POP PUSH1 0x1F NOT PUSH1 0x3F RETURNDATASIZE ADD AND DUP3 ADD PUSH1 0x40 MSTORE RETURNDATASIZE DUP3 MSTORE RETURNDATASIZE PUSH1 0x0 PUSH1 0x20 DUP5 ADD RETURNDATACOPY PUSH2 0x764 JUMP JUMPDEST PUSH1 0x60 SWAP2 POP JUMPDEST POP POP SWAP1 POP DUP1 PUSH2 0x79F JUMPI PUSH1 0x40 MLOAD PUSH32 0xE649B36700000000000000000000000000000000000000000000000000000000 DUP2 MSTORE PUSH1 0x4 ADD PUSH1 0x40 MLOAD DUP1 SWAP2 SUB SWAP1 REVERT JUMPDEST PUSH1 0x0 PUSH8 0xFFFFFFFFFFFFFFFF DUP2 GT ISZERO PUSH2 0x7BA JUMPI PUSH2 0x7B9 PUSH2 0x982 JUMP JUMPDEST JUMPDEST PUSH1 0x40 MLOAD SWAP1 DUP1 DUP3 MSTORE DUP1 PUSH1 0x20 MUL PUSH1 0x20 ADD DUP3 ADD PUSH1 0x40 MSTORE DUP1 ISZERO PUSH2 0x7E8 JUMPI DUP2 PUSH1 0x20 ADD PUSH1 0x20 DUP3 MUL DUP1 CALLDATASIZE DUP4 CALLDATACOPY DUP1 DUP3 ADD SWAP2 POP POP SWAP1 POP JUMPDEST POP PUSH1 0x0 SWAP1 DUP1 MLOAD SWAP1 PUSH1 0x20 ADD SWAP1 PUSH2 0x7FE SWAP3 SWAP2 SWAP1 PUSH2 0x87B JUMP JUMPDEST POP TIMESTAMP PUSH1 0x3 DUP2 SWAP1 SSTORE POP PUSH1 0x0 PUSH1 0x1 PUSH1 0x0 PUSH2 0x100 EXP DUP2 SLOAD DUP2 PUSH1 0xFF MUL NOT AND SWAP1 DUP4 PUSH1 0x1 DUP2 GT ISZERO PUSH2 0x82C JUMPI PUSH2 0x82B PUSH2 0xD13 JUMP JUMPDEST JUMPDEST MUL OR SWAP1 SSTORE POP DUP2 PUSH20 0xFFFFFFFFFFFFFFFFFFFFFFFFFFFFFFFFFFFFFFFF AND PUSH32 0x43450AFEA3C4FA1AC0879B13F5656D98EFCB0B46541906F4A12654FB1686968E PUSH1 0x40 MLOAD PUSH1 0x40 MLOAD DUP1 SWAP2 SUB SWAP1 LOG2 POP POP POP POP POP JUMP JUMPDEST DUP3 DUP1 SLOAD DUP3 DUP3 SSTORE SWAP1 PUSH1 0x0 MSTORE PUSH1 0x20 PUSH1 0x0 KECCAK256 SWAP1 DUP2 ADD SWAP3 DUP3 ISZERO PUSH2 0x8F4 JUMPI SWAP2 PUSH1 0x20 MUL DUP3 ADD JUMPDEST DUP3 DUP2 GT ISZERO PUSH2 0x8F3 JUMPI DUP3 MLOAD DUP3 PUSH1 0x0 PUSH2 0x100 EXP DUP2 SLOAD DUP2 PUSH20 0xFFFFFFFFFFFFFFFFFFFFFFFFFFFFFFFFFFFFFFFF MUL NOT AND SWAP1 DUP4 PUSH20 0xFFFFFFFFFFFFFFFFFFFFFFFFFFFFFFFFFFFFFFFF AND MUL OR SWAP1 SSTORE POP SWAP2 PUSH1 0x20 ADD SWAP2 SWAP1 PUSH1 0x1 ADD SWAP1 PUSH2 0x89B JUMP JUMPDEST JUMPDEST POP SWAP1 POP PUSH2 0x901 SWAP2 SWAP1 PUSH2 0x905 JUMP JUMPDEST POP SWAP1 JUMP JUMPDEST JUMPDEST DUP1 DUP3 GT ISZERO PUSH2 0x91E JUMPI PUSH1 0x0 DUP2 PUSH1 0x0 SWAP1 SSTORE POP PUSH1 0x1 ADD PUSH2 0x906 JUMP JUMPDEST POP SWAP1 JUMP JUMPDEST PUSH1 0x0 PUSH1 0x40 MLOAD SWAP1 POP SWAP1 JUMP JUMPDEST PUSH1 0x0 DUP1 REVERT JUMPDEST PUSH1 0x0 DUP1 REVERT JUMPDEST PUSH1 0x0 DUP2 SWAP1 POP SWAP2 SWAP1 POP JUMP JUMPDEST PUSH2 0x949 DUP2 PUSH2 0x936 JUMP JUMPDEST DUP2 EQ PUSH2 0x954 JUMPI PUSH1 0x0 DUP1 REVERT JUMPDEST POP JUMP JUMPDEST PUSH1 0x0 DUP2 CALLDATALOAD SWAP1 POP PUSH2 0x966 DUP2 PUSH2 0x940 JUMP JUMPDEST SWAP3 SWAP2 POP POP JUMP JUMPDEST PUSH1 0x0 DUP1 REVERT JUMPDEST PUSH1 0x0 PUSH1 0x1F NOT PUSH1 0x1F DUP4 ADD AND SWAP1 POP SWAP2 SWAP1 POP JUMP JUMPDEST PUSH32 0x4E487B7100000000000000000000000000000000000000000000000000000000 PUSH1 0x0 MSTORE PUSH1 0x41 PUSH1 0x4 MSTORE PUSH1 0x24 PUSH1 0x0 REVERT JUMPDEST PUSH2 0x9BA DUP3 PUSH2 0x971 JUMP JUMPDEST DUP2 ADD DUP2 DUP2 LT PUSH8 0xFFFFFFFFFFFFFFFF DUP3 GT OR ISZERO PUSH2 0x9D9 JUMPI PUSH2 0x9D8 PUSH2 0x982 JUMP JUMPDEST JUMPDEST DUP1 PUSH1 0x40 MSTORE POP POP POP JUMP JUMPDEST PUSH1 0x0 PUSH2 0x9EC PUSH2 0x922 JUMP JUMPDEST SWAP1 POP PUSH2 0x9F8 DUP3 DUP3 PUSH2 0x9B1 JUMP JUMPDEST SWAP2 SWAP1 POP JUMP JUMPDEST PUSH1 0x0 PUSH8 0xFFFFFFFFFFFFFFFF DUP3 GT ISZERO PUSH2 0xA18 JUMPI PUSH2 0xA17 PUSH2 0x982 JUMP JUMPDEST JUMPDEST PUSH1 0x20 DUP3 MUL SWAP1 POP PUSH1 0x20 DUP2 ADD SWAP1 POP SWAP2 SWAP1 POP JUMP JUMPDEST PUSH1 0x0 DUP1 REVERT JUMPDEST PUSH1 0x0 PUSH2 0xA41 PUSH2 0xA3C DUP5 PUSH2 0x9FD JUMP JUMPDEST PUSH2 0x9E2 JUMP JUMPDEST SWAP1 POP DUP1 DUP4 DUP3 MSTORE PUSH1 0x20 DUP3 ADD SWAP1 POP PUSH1 0x20 DUP5 MUL DUP4 ADD DUP6 DUP2 GT ISZERO PUSH2 0xA64 JUMPI PUSH2 0xA63 PUSH2 0xA29 JUMP JUMPDEST JUMPDEST DUP4 JUMPDEST DUP2 DUP2 LT ISZERO PUSH2 0xA8D JUMPI DUP1 PUSH2 0xA79 DUP9 DUP3 PUSH2 0x957 JUMP JUMPDEST DUP5 MSTORE PUSH1 0x20 DUP5 ADD SWAP4 POP POP PUSH1 0x20 DUP2 ADD SWAP1 POP PUSH2 0xA66 JUMP JUMPDEST POP POP POP SWAP4 SWAP3 POP POP POP JUMP JUMPDEST PUSH1 0x0 DUP3 PUSH1 0x1F DUP4 ADD SLT PUSH2 0xAAC JUMPI PUSH2 0xAAB PUSH2 0x96C JUMP JUMPDEST JUMPDEST DUP2 CALLDATALOAD PUSH2 0xABC DUP5 DUP3 PUSH1 0x20 DUP7 ADD PUSH2 0xA2E JUMP JUMPDEST SWAP2 POP POP SWAP3 SWAP2 POP POP JUMP JUMPDEST PUSH1 0x0 DUP1 PUSH1 0x40 DUP4 DUP6 SUB SLT ISZERO PUSH2 0xADC JUMPI PUSH2 0xADB PUSH2 0x92C JUMP JUMPDEST JUMPDEST PUSH1 0x0 PUSH2 0xAEA DUP6 DUP3 DUP7 ADD PUSH2 0x957 JUMP JUMPDEST SWAP3 POP POP PUSH1 0x20 DUP4 ADD CALLDATALOAD PUSH8 0xFFFFFFFFFFFFFFFF DUP2 GT ISZERO PUSH2 0xB0B JUMPI PUSH2 0xB0A PUSH2 0x931 JUMP JUMPDEST JUMPDEST PUSH2 0xB17 DUP6 DUP3 DUP7 ADD PUSH2 0xA97 JUMP JUMPDEST SWAP2 POP POP SWAP3 POP SWAP3 SWAP1 POP JUMP JUMPDEST PUSH1 0x0 DUP1 REVERT JUMPDEST PUSH1 0x0 PUSH8 0xFFFFFFFFFFFFFFFF DUP3 GT ISZERO PUSH2 0xB41 JUMPI PUSH2 0xB40 PUSH2 0x982 JUMP JUMPDEST JUMPDEST PUSH2 0xB4A DUP3 PUSH2 0x971 JUMP JUMPDEST SWAP1 POP PUSH1 0x20 DUP2 ADD SWAP1 POP SWAP2 SWAP1 POP JUMP JUMPDEST DUP3 DUP2 DUP4 CALLDATACOPY PUSH1 0x0 DUP4 DUP4 ADD MSTORE POP POP POP JUMP JUMPDEST PUSH1 0x0 PUSH2 0xB79 PUSH2 0xB74 DUP5 PUSH2 0xB26 JUMP JUMPDEST PUSH2 0x9E2 JUMP JUMPDEST SWAP1 POP DUP3 DUP2 MSTORE PUSH1 0x20 DUP2 ADD DUP5 DUP5 DUP5 ADD GT ISZERO PUSH2 0xB95 JUMPI PUSH2 0xB94 PUSH2 0xB21 JUMP JUMPDEST JUMPDEST PUSH2 0xBA0 DUP5 DUP3 DUP6 PUSH2 0xB57 JUMP JUMPDEST POP SWAP4 SWAP3 POP POP POP JUMP JUMPDEST PUSH1 0x0 DUP3 PUSH1 0x1F DUP4 ADD SLT PUSH2 0xBBD JUMPI PUSH2 0xBBC PUSH2 0x96C JUMP JUMPDEST JUMPDEST DUP2 CALLDATALOAD PUSH2 0xBCD DUP5 DUP3 PUSH1 0x20 DUP7 ADD PUSH2 0xB66 JUMP JUMPDEST SWAP2 POP POP SWAP3 SWAP2 POP POP JUMP JUMPDEST PUSH1 0x0 PUSH1 0x20 DUP3 DUP5 SUB SLT ISZERO PUSH2 0xBEC JUMPI PUSH2 0xBEB PUSH2 0x92C JUMP JUMPDEST JUMPDEST PUSH1 0x0 DUP3 ADD CALLDATALOAD PUSH8 0xFFFFFFFFFFFFFFFF DUP2 GT ISZERO PUSH2 0xC0A JUMPI PUSH2 0xC09 PUSH2 0x931 JUMP JUMPDEST JUMPDEST PUSH2 0xC16 DUP5 DUP3 DUP6 ADD PUSH2 0xBA8 JUMP JUMPDEST SWAP2 POP POP SWAP3 SWAP2 POP POP JUMP JUMPDEST PUSH1 0x0 DUP2 ISZERO ISZERO SWAP1 POP SWAP2 SWAP1 POP JUMP JUMPDEST PUSH2 0xC34 DUP2 PUSH2 0xC1F JUMP JUMPDEST DUP3 MSTORE POP POP JUMP JUMPDEST PUSH1 0x0 DUP2 MLOAD SWAP1 POP SWAP2 SWAP1 POP JUMP JUMPDEST PUSH1 0x0 DUP3 DUP3 MSTORE PUSH1 0x20 DUP3 ADD SWAP1 POP SWAP3 SWAP2 POP POP JUMP JUMPDEST PUSH1 0x0 JUMPDEST DUP4 DUP2 LT ISZERO PUSH2 0xC74 JUMPI DUP1 DUP3 ADD MLOAD DUP2 DUP5 ADD MSTORE PUSH1 0x20 DUP2 ADD SWAP1 POP PUSH2 0xC59 JUMP JUMPDEST PUSH1 0x0 DUP5 DUP5 ADD MSTORE POP POP POP POP JUMP JUMPDEST PUSH1 0x0 PUSH2 0xC8B DUP3 PUSH2 0xC3A JUMP JUMPDEST PUSH2 0xC95 DUP2 DUP6 PUSH2 0xC45 JUMP JUMPDEST SWAP4 POP PUSH2 0xCA5 DUP2 DUP6 PUSH1 0x20 DUP7 ADD PUSH2 0xC56 JUMP JUMPDEST PUSH2 0xCAE DUP2 PUSH2 0x971 JUMP JUMPDEST DUP5 ADD SWAP2 POP POP SWAP3 SWAP2 POP POP JUMP JUMPDEST PUSH1 0x0 PUSH1 0x40 DUP3 ADD SWAP1 POP PUSH2 0xCCE PUSH1 0x0 DUP4 ADD DUP6 PUSH2 0xC2B JUMP JUMPDEST DUP2 DUP2 SUB PUSH1 0x20 DUP4 ADD MSTORE PUSH2 0xCE0 DUP2 DUP5 PUSH2 0xC80 JUMP JUMPDEST SWAP1 POP SWAP4 SWAP3 POP POP POP JUMP JUMPDEST PUSH2 0xCF2 DUP2 PUSH2 0x936 JUMP JUMPDEST DUP3 MSTORE POP POP JUMP JUMPDEST PUSH1 0x0 PUSH1 0x20 DUP3 ADD SWAP1 POP PUSH2 0xD0D PUSH1 0x0 DUP4 ADD DUP5 PUSH2 0xCE9 JUMP JUMPDEST SWAP3 SWAP2 POP POP JUMP JUMPDEST PUSH32 0x4E487B7100000000000000000000000000000000000000000000000000000000 PUSH1 0x0 MSTORE PUSH1 0x21 PUSH1 0x4 MSTORE PUSH1 0x24 PUSH1 0x0 REVERT JUMPDEST PUSH1 0x0 PUSH20 0xFFFFFFFFFFFFFFFFFFFFFFFFFFFFFFFFFFFFFFFF DUP3 AND SWAP1 POP SWAP2 SWAP1 POP JUMP JUMPDEST PUSH1 0x0 PUSH2 0xD6D DUP3 PUSH2 0xD42 JUMP JUMPDEST SWAP1 POP SWAP2 SWAP1 POP JUMP JUMPDEST PUSH2 0xD7D DUP2 PUSH2 0xD62 JUMP JUMPDEST DUP3 MSTORE POP POP JUMP JUMPDEST PUSH1 0x0 PUSH1 0x40 DUP3 ADD SWAP1 POP PUSH2 0xD98 PUSH1 0x0 DUP4 ADD DUP6 PUSH2 0xD74 JUMP JUMPDEST PUSH2 0xDA5 PUSH1 0x20 DUP4 ADD DUP5 PUSH2 0xD74 JUMP JUMPDEST SWAP4 SWAP3 POP POP POP JUMP JUMPDEST PUSH1 0x0 PUSH1 0x60 DUP3 ADD SWAP1 POP PUSH2 0xDC1 PUSH1 0x0 DUP4 ADD DUP7 PUSH2 0xCE9 JUMP JUMPDEST PUSH2 0xDCE PUSH1 0x20 DUP4 ADD DUP6 PUSH2 0xCE9 JUMP JUMPDEST PUSH2 0xDDB PUSH1 0x40 DUP4 ADD DUP5 PUSH2 0xCE9 JUMP JUMPDEST SWAP5 SWAP4 POP POP POP POP JUMP JUMPDEST PUSH1 0x0 DUP2 SWAP1 POP SWAP2 SWAP1 POP JUMP JUMPDEST PUSH2 0xDF6 DUP2 PUSH2 0xDE3 JUMP JUMPDEST DUP3 MSTORE POP POP JUMP JUMPDEST PUSH1 0x0 PUSH8 0xFFFFFFFFFFFFFFFF DUP3 AND SWAP1 POP SWAP2 SWAP1 POP JUMP JUMPDEST PUSH2 0xE19 DUP2 PUSH2 0xDFC JUMP JUMPDEST DUP3 MSTORE POP POP JUMP JUMPDEST PUSH1 0x0 PUSH2 0xFFFF DUP3 AND SWAP1 POP SWAP2 SWAP1 POP JUMP JUMPDEST PUSH2 0xE36 DUP2 PUSH2 0xE1F JUMP JUMPDEST DUP3 MSTORE POP POP JUMP JUMPDEST PUSH1 0x0 PUSH4 0xFFFFFFFF DUP3 AND SWAP1 POP SWAP2 SWAP1 POP JUMP JUMPDEST PUSH2 0xE55 DUP2 PUSH2 0xE3C JUMP JUMPDEST DUP3 MSTORE POP POP JUMP JUMPDEST PUSH1 0x0 PUSH1 0xA0 DUP3 ADD SWAP1 POP PUSH2 0xE70 PUSH1 0x0 DUP4 ADD DUP9 PUSH2 0xDED JUMP JUMPDEST PUSH2 0xE7D PUSH1 0x20 DUP4 ADD DUP8 PUSH2 0xE10 JUMP JUMPDEST PUSH2 0xE8A PUSH1 0x40 DUP4 ADD DUP7 PUSH2 0xE2D JUMP JUMPDEST PUSH2 0xE97 PUSH1 0x60 DUP4 ADD DUP6 PUSH2 0xE4C JUMP JUMPDEST PUSH2 0xEA4 PUSH1 0x80 DUP4 ADD DUP5 PUSH2 0xE4C JUMP JUMPDEST SWAP7 SWAP6 POP POP POP POP POP POP JUMP JUMPDEST PUSH1 0x0 DUP2 MLOAD SWAP1 POP PUSH2 0xEBD DUP2 PUSH2 0x940 JUMP JUMPDEST SWAP3 SWAP2 POP POP JUMP JUMPDEST PUSH1 0x0 PUSH1 0x20 DUP3 DUP5 SUB SLT ISZERO PUSH2 0xED9 JUMPI PUSH2 0xED8 PUSH2 0x92C JUMP JUMPDEST JUMPDEST PUSH1 0x0 PUSH2 0xEE7 DUP5 DUP3 DUP6 ADD PUSH2 0xEAE JUMP JUMPDEST SWAP2 POP POP SWAP3 SWAP2 POP POP JUMP JUMPDEST PUSH32 0x4E487B7100000000000000000000000000000000000000000000000000000000 PUSH1 0x0 MSTORE PUSH1 0x11 PUSH1 0x4 MSTORE PUSH1 0x24 PUSH1 0x0 REVERT JUMPDEST PUSH1 0x0 PUSH2 0xF2A DUP3 PUSH2 0x936 JUMP JUMPDEST SWAP2 POP PUSH2 0xF35 DUP4 PUSH2 0x936 JUMP JUMPDEST SWAP3 POP DUP3 DUP3 SUB SWAP1 POP DUP2 DUP2 GT ISZERO PUSH2 0xF4D JUMPI PUSH2 0xF4C PUSH2 0xEF0 JUMP JUMPDEST JUMPDEST SWAP3 SWAP2 POP POP JUMP JUMPDEST PUSH32 0x4E487B7100000000000000000000000000000000000000000000000000000000 PUSH1 0x0 MSTORE PUSH1 0x32 PUSH1 0x4 MSTORE PUSH1 0x24 PUSH1 0x0 REVERT JUMPDEST PUSH32 0x4E487B7100000000000000000000000000000000000000000000000000000000 PUSH1 0x0 MSTORE PUSH1 0x12 PUSH1 0x4 MSTORE PUSH1 0x24 PUSH1 0x0 REVERT JUMPDEST PUSH1 0x0 PUSH2 0xFBC DUP3 PUSH2 0x936 JUMP JUMPDEST SWAP2 POP PUSH2 0xFC7 DUP4 PUSH2 0x936 JUMP JUMPDEST SWAP3 POP DUP3 PUSH2 0xFD7 JUMPI PUSH2 0xFD6 PUSH2 0xF82 JUMP JUMPDEST JUMPDEST DUP3 DUP3 MOD SWAP1 POP SWAP3 SWAP2 POP POP JUMP JUMPDEST PUSH1 0x0 DUP2 SWAP1 POP SWAP3 SWAP2 POP POP JUMP JUMPDEST POP JUMP JUMPDEST PUSH1 0x0 PUSH2 0xFFD PUSH1 0x0 DUP4 PUSH2 0xFE2 JUMP JUMPDEST SWAP2 POP PUSH2 0x1008 DUP3 PUSH2 0xFED JUMP JUMPDEST PUSH1 0x0 DUP3 ADD SWAP1 POP SWAP2 SWAP1 POP JUMP JUMPDEST PUSH1 0x0 PUSH2 0x101E DUP3 PUSH2 0xFF0 JUMP JUMPDEST SWAP2 POP DUP2 SWAP1 POP SWAP2 SWAP1 POP JUMP INVALID LOG2 PUSH5 0x6970667358 0x22 SLT KECCAK256 PUSH29 0x3F38C78F938AA77AEC7348E3A7D419B5D6201FFFCEFF069B6559C3754E 0xD4 SELFBALANCE PUSH5 0x736F6C6343 STOP ADDMOD GT STOP CALLER "},"gasEstimates":{"creation":{"codeDepositCost":"838000","executionCost":"infinite","totalCost":"infinite"},"external":{"checkUpkeep(bytes)":"infinite","i_entranceFee()":"infinite","pay()":"infinite","performUpkeep(bytes)":"infinite","rawFulfillRandomWords(uint256,uint256[])":"infinite"},"internal":{"fulfillRandomWords(uint256,uint256[] memory)":"infinite"}},"methodIdentifiers":{"checkUpkeep(bytes)":"6e04ff0d","i_entranceFee()":"7ea3e6c1","pay()":"1b9265b8","performUpkeep(bytes)":"4585e33b","rawFulfillRandomWords(uint256,uint256[])":"1fe543e3"}},"storageLayout":{"storage":[{"astId":1200,"contract":"contracts/lottery.sol:Lottery","label":"s_playerList","offset":0,"slot":"0","type":"t_array(t_address_payable)dyn_storage"},{"astId":1203,"contract":"contracts/lottery.sol:Lottery","label":"lotteryState","offset":0,"slot":"1","type":"t_enum(Lottery_State)1195"},{"astId":1208,"contract":"contracts/lottery.sol:Lottery","label":"requestId","offset":0,"slot":"2","type":"t_uint256"},{"astId":1212,"contract":"contracts/lottery.sol:Lottery","label":"s_lastTimeStamp","offset":0,"slot":"3","type":"t_uint256"},{"astId":1214,"contract":"contracts/lottery.sol:Lottery","label":"Lottery_winner","offset":0,"slot":"4","type":"t_address"}],"types":{"t_address":{"encoding":"inplace","label":"address","numberOfBytes":"20"},"t_address_payable":{"encoding":"inplace","label":"address payable","numberOfBytes":"20"},"t_array(t_address_payable)dyn_storage":{"base":"t_address_payable","encoding":"dynamic_array","label":"address payable[]","numberOfBytes":"32"},"t_enum(Lottery_State)1195":{"encoding":"inplace","label":"enum Lottery.Lottery_State","numberOfBytes":"1"},"t_uint256":{"encoding":"inplace","label":"uint256","numberOfBytes":"32"}}},"userdoc":{"kind":"user","methods":{},"version":1}}}}