{
  "_format": "hh-sol-artifact-1",
  "contractName": "Lottery",
  "sourceName": "contracts/lottery.sol",
  "abi": [
    {
      "inputs": [
        {
          "internalType": "uint256",
          "name": "entranceFee",
          "type": "uint256"
        },
        {
          "internalType": "address",
          "name": "vrfCoodAddress",
          "type": "address"
        },
        {
          "internalType": "bytes32",
          "name": "keyHash",
          "type": "bytes32"
        },
        {
          "internalType": "uint64",
          "name": "subId",
          "type": "uint64"
        },
        {
          "internalType": "uint32",
          "name": "callBackGasLimit",
          "type": "uint32"
        },
        {
          "internalType": "uint256",
          "name": "interval",
          "type": "uint256"
        }
      ],
      "stateMutability": "nonpayable",
      "type": "constructor"
    },
    {
      "inputs": [],
      "name": "Lottery_NotOpen",
      "type": "error"
    },
    {
      "inputs": [],
      "name": "Lottery_notEnoughToken",
      "type": "error"
    },
    {
      "inputs": [],
      "name": "Lottery_transactionFailed",
      "type": "error"
    },
    {
      "inputs": [
        {
          "internalType": "uint256",
          "name": "balance",
          "type": "uint256"
        },
        {
          "internalType": "uint256",
          "name": "state",
          "type": "uint256"
        },
        {
          "internalType": "uint256",
          "name": "players",
          "type": "uint256"
        }
      ],
      "name": "Lottery_upkeepNotNeeded",
      "type": "error"
    },
    {
      "inputs": [
        {
          "internalType": "address",
          "name": "have",
          "type": "address"
        },
        {
          "internalType": "address",
          "name": "want",
          "type": "address"
        }
      ],
      "name": "OnlyCoordinatorCanFulfill",
      "type": "error"
    },
    {
      "anonymous": false,
      "inputs": [
        {
          "indexed": true,
          "internalType": "address",
          "name": "lotteryWinnerAddress",
          "type": "address"
        }
      ],
      "name": "lotteryWinner",
      "type": "event"
    },
    {
      "anonymous": false,
      "inputs": [
        {
          "indexed": true,
          "internalType": "address",
          "name": "registeredPlayers",
          "type": "address"
        }
      ],
      "name": "registeredPlayers",
      "type": "event"
    },
    {
      "anonymous": false,
      "inputs": [
        {
          "indexed": true,
          "internalType": "uint256",
          "name": "requestId",
          "type": "uint256"
        }
      ],
      "name": "requestIdReceived",
      "type": "event"
    },
    {
      "inputs": [
        {
          "internalType": "bytes",
          "name": "",
          "type": "bytes"
        }
      ],
      "name": "checkUpkeep",
      "outputs": [
        {
          "internalType": "bool",
          "name": "upKeepNeeded",
          "type": "bool"
        },
        {
          "internalType": "bytes",
          "name": "",
          "type": "bytes"
        }
      ],
      "stateMutability": "view",
      "type": "function"
    },
    {
      "inputs": [
        {
          "internalType": "uint256",
          "name": "index",
          "type": "uint256"
        }
      ],
      "name": "getAPlayer",
      "outputs": [
        {
          "internalType": "address",
          "name": "",
          "type": "address"
        }
      ],
      "stateMutability": "view",
      "type": "function"
    },
    {
      "inputs": [],
      "name": "getInterval",
      "outputs": [
        {
          "internalType": "uint256",
          "name": "",
          "type": "uint256"
        }
      ],
      "stateMutability": "view",
      "type": "function"
    },
    {
      "inputs": [],
      "name": "getLastestTimeStamp",
      "outputs": [
        {
          "internalType": "uint256",
          "name": "",
          "type": "uint256"
        }
      ],
      "stateMutability": "view",
      "type": "function"
    },
    {
      "inputs": [],
      "name": "getPlayers",
      "outputs": [
        {
          "internalType": "uint256",
          "name": "",
          "type": "uint256"
        }
      ],
      "stateMutability": "view",
      "type": "function"
    },
    {
      "inputs": [],
      "name": "getWinner",
      "outputs": [
        {
          "internalType": "address",
          "name": "",
          "type": "address"
        }
      ],
      "stateMutability": "view",
      "type": "function"
    },
    {
      "inputs": [],
      "name": "i_entranceFee",
      "outputs": [
        {
          "internalType": "uint256",
          "name": "",
          "type": "uint256"
        }
      ],
      "stateMutability": "view",
      "type": "function"
    },
    {
      "inputs": [],
      "name": "lotteryState",
      "outputs": [
        {
          "internalType": "enum Lottery.Lottery_State",
          "name": "",
          "type": "uint8"
        }
      ],
      "stateMutability": "view",
      "type": "function"
    },
    {
      "inputs": [],
      "name": "pay",
      "outputs": [],
      "stateMutability": "payable",
      "type": "function"
    },
    {
      "inputs": [
        {
          "internalType": "bytes",
          "name": "",
          "type": "bytes"
        }
      ],
      "name": "performUpkeep",
      "outputs": [],
      "stateMutability": "nonpayable",
      "type": "function"
    },
    {
      "inputs": [
        {
          "internalType": "uint256",
          "name": "requestId",
          "type": "uint256"
        },
        {
          "internalType": "uint256[]",
          "name": "randomWords",
          "type": "uint256[]"
        }
      ],
      "name": "rawFulfillRandomWords",
      "outputs": [],
      "stateMutability": "nonpayable",
      "type": "function"
    }
  ],
  "bytecode": "0x610180604052600163ffffffff166101609063ffffffff168152503480156200002757600080fd5b50604051620017243803806200172483398181016040528101906200004d9190620002a9565b848073ffffffffffffffffffffffffffffffffffffffff1660808173ffffffffffffffffffffffffffffffffffffffff1681525050508560a081815250506000600160006101000a81548160ff02191690836001811115620000b457620000b362000345565b5b02179055508473ffffffffffffffffffffffffffffffffffffffff1660c08173ffffffffffffffffffffffffffffffffffffffff16815250508361010081815250508267ffffffffffffffff166101208167ffffffffffffffff16815250508163ffffffff166101408163ffffffff16815250508060e081815250504260038190555050505050505062000374565b600080fd5b6000819050919050565b6200015d8162000148565b81146200016957600080fd5b50565b6000815190506200017d8162000152565b92915050565b600073ffffffffffffffffffffffffffffffffffffffff82169050919050565b6000620001b08262000183565b9050919050565b620001c281620001a3565b8114620001ce57600080fd5b50565b600081519050620001e281620001b7565b92915050565b6000819050919050565b620001fd81620001e8565b81146200020957600080fd5b50565b6000815190506200021d81620001f2565b92915050565b600067ffffffffffffffff82169050919050565b620002428162000223565b81146200024e57600080fd5b50565b600081519050620002628162000237565b92915050565b600063ffffffff82169050919050565b620002838162000268565b81146200028f57600080fd5b50565b600081519050620002a38162000278565b92915050565b60008060008060008060c08789031215620002c957620002c862000143565b5b6000620002d989828a016200016c565b9650506020620002ec89828a01620001d1565b9550506040620002ff89828a016200020c565b94505060606200031289828a0162000251565b93505060806200032589828a0162000292565b92505060a06200033889828a016200016c565b9150509295509295509295565b7f4e487b7100000000000000000000000000000000000000000000000000000000600052602160045260246000fd5b60805160a05160c05160e05161010051610120516101405161016051611335620003ef600039600061064201526000610621015260006105fe015260006105dd0152600081816107930152610852015260006105a10152600081816102e901526107ec0152600081816103eb015261043f01526113356000f3fe60806040526004361061009c5760003560e01c80636e04ff0d116100645780636e04ff0d146101655780637ea3e6c1146101a35780638b5b9ccc146101ce5780638ba05b0e146101f95780638e7ea5b21461022457806391ad27b41461024f5761009c565b80631b9265b8146100a15780631fe543e3146100ab5780634109e9de146100d45780634585e33b146101115780636939864b1461013a575b600080fd5b6100a961027a565b005b3480156100b757600080fd5b506100d260048036038101906100cd9190610cf1565b6103e9565b005b3480156100e057600080fd5b506100fb60048036038101906100f69190610d4d565b6104a9565b6040516101089190610dbb565b60405180910390f35b34801561011d57600080fd5b5061013860048036038101906101339190610e8b565b6104f0565b005b34801561014657600080fd5b5061014f610727565b60405161015c9190610f4b565b60405180910390f35b34801561017157600080fd5b5061018c60048036038101906101879190610e8b565b61073e565b60405161019a929190611000565b60405180910390f35b3480156101af57600080fd5b506101b86107ea565b6040516101c5919061103f565b60405180910390f35b3480156101da57600080fd5b506101e361080e565b6040516101f0919061103f565b60405180910390f35b34801561020557600080fd5b5061020e61081a565b60405161021b919061103f565b60405180910390f35b34801561023057600080fd5b50610239610824565b6040516102469190610dbb565b60405180910390f35b34801561025b57600080fd5b5061026461084e565b604051610271919061103f565b60405180910390f35b6000600181111561028e5761028d610ed4565b5b600160009054906101000a900460ff1660018111156102b0576102af610ed4565b5b146102e7576040517f732acd4a00000000000000000000000000000000000000000000000000000000815260040160405180910390fd5b7f0000000000000000000000000000000000000000000000000000000000000000341015610341576040517f2849030400000000000000000000000000000000000000000000000000000000815260040160405180910390fd5b6000339080600181540180825580915050600190039060005260206000200160009091909190916101000a81548173ffffffffffffffffffffffffffffffffffffffff021916908373ffffffffffffffffffffffffffffffffffffffff1602179055503373ffffffffffffffffffffffffffffffffffffffff167f4bafce225aad9a1b12c6653406881a07c12e107c8e85890a1fae0c6c73783baf60405160405180910390a2565b7f000000000000000000000000000000000000000000000000000000000000000073ffffffffffffffffffffffffffffffffffffffff163373ffffffffffffffffffffffffffffffffffffffff161461049b57337f00000000000000000000000000000000000000000000000000000000000000006040517f1cf993f400000000000000000000000000000000000000000000000000000000815260040161049292919061105a565b60405180910390fd5b6104a58282610876565b5050565b60008082815481106104be576104bd611083565b5b9060005260206000200160009054906101000a900473ffffffffffffffffffffffffffffffffffffffff169050919050565b60006105306040518060400160405280600281526020017f307800000000000000000000000000000000000000000000000000000000000081525061073e565b5090508061059f5747600160009054906101000a900460ff16600181111561055b5761055a610ed4565b5b6000805490506040517fa5a3fe4b000000000000000000000000000000000000000000000000000000008152600401610596939291906110b2565b60405180910390fd5b7f000000000000000000000000000000000000000000000000000000000000000073ffffffffffffffffffffffffffffffffffffffff16635d3b1d307f00000000000000000000000000000000000000000000000000000000000000007f000000000000000000000000000000000000000000000000000000000000000060037f00000000000000000000000000000000000000000000000000000000000000007f00000000000000000000000000000000000000000000000000000000000000006040518663ffffffff1660e01b8152600401610681959493929190611161565b6020604051808303816000875af11580156106a0573d6000803e3d6000fd5b505050506040513d601f19601f820116820180604052508101906106c491906111c9565b60028190555060018060006101000a81548160ff021916908360018111156106ef576106ee610ed4565b5b02179055506002547f1a705c7a00579d64029d06de9bad180b46279572d543e850b1a642d86f02edca60405160405180910390a25050565b6000600160009054906101000a900460ff16905090565b6000606060008047119050600080600080549050119050600080600181111561076a57610769610ed4565b5b600160009054906101000a900460ff16600181111561078c5761078b610ed4565b5b14905060007f0000000000000000000000000000000000000000000000000000000000000000600354426107c09190611225565b1190508380156107cd5750825b80156107d65750815b80156107df5750805b955050505050915091565b7f000000000000000000000000000000000000000000000000000000000000000081565b60008080549050905090565b6000600354905090565b6000600460009054906101000a900473ffffffffffffffffffffffffffffffffffffffff16905090565b60007f0000000000000000000000000000000000000000000000000000000000000000905090565b600080805490508260008151811061089157610890611083565b5b60200260200101516108a39190611288565b905060008082815481106108ba576108b9611083565b5b9060005260206000200160009054906101000a900473ffffffffffffffffffffffffffffffffffffffff16905080600460006101000a81548173ffffffffffffffffffffffffffffffffffffffff021916908373ffffffffffffffffffffffffffffffffffffffff16021790555060008173ffffffffffffffffffffffffffffffffffffffff164760405161094e906112ea565b60006040518083038185875af1925050503d806000811461098b576040519150601f19603f3d011682016040523d82523d6000602084013e610990565b606091505b50509050806109cb576040517fe649b36700000000000000000000000000000000000000000000000000000000815260040160405180910390fd5b600067ffffffffffffffff8111156109e6576109e5610bae565b5b604051908082528060200260200182016040528015610a145781602001602082028036833780820191505090505b5060009080519060200190610a2a929190610aa7565b50426003819055506000600160006101000a81548160ff02191690836001811115610a5857610a57610ed4565b5b02179055508173ffffffffffffffffffffffffffffffffffffffff167f43450afea3c4fa1ac0879b13f5656d98efcb0b46541906f4a12654fb1686968e60405160405180910390a25050505050565b828054828255906000526020600020908101928215610b20579160200282015b82811115610b1f5782518260006101000a81548173ffffffffffffffffffffffffffffffffffffffff021916908373ffffffffffffffffffffffffffffffffffffffff16021790555091602001919060010190610ac7565b5b509050610b2d9190610b31565b5090565b5b80821115610b4a576000816000905550600101610b32565b5090565b6000604051905090565b600080fd5b600080fd5b6000819050919050565b610b7581610b62565b8114610b8057600080fd5b50565b600081359050610b9281610b6c565b92915050565b600080fd5b6000601f19601f8301169050919050565b7f4e487b7100000000000000000000000000000000000000000000000000000000600052604160045260246000fd5b610be682610b9d565b810181811067ffffffffffffffff82111715610c0557610c04610bae565b5b80604052505050565b6000610c18610b4e565b9050610c248282610bdd565b919050565b600067ffffffffffffffff821115610c4457610c43610bae565b5b602082029050602081019050919050565b600080fd5b6000610c6d610c6884610c29565b610c0e565b90508083825260208201905060208402830185811115610c9057610c8f610c55565b5b835b81811015610cb95780610ca58882610b83565b845260208401935050602081019050610c92565b5050509392505050565b600082601f830112610cd857610cd7610b98565b5b8135610ce8848260208601610c5a565b91505092915050565b60008060408385031215610d0857610d07610b58565b5b6000610d1685828601610b83565b925050602083013567ffffffffffffffff811115610d3757610d36610b5d565b5b610d4385828601610cc3565b9150509250929050565b600060208284031215610d6357610d62610b58565b5b6000610d7184828501610b83565b91505092915050565b600073ffffffffffffffffffffffffffffffffffffffff82169050919050565b6000610da582610d7a565b9050919050565b610db581610d9a565b82525050565b6000602082019050610dd06000830184610dac565b92915050565b600080fd5b600067ffffffffffffffff821115610df657610df5610bae565b5b610dff82610b9d565b9050602081019050919050565b82818337600083830152505050565b6000610e2e610e2984610ddb565b610c0e565b905082815260208101848484011115610e4a57610e49610dd6565b5b610e55848285610e0c565b509392505050565b600082601f830112610e7257610e71610b98565b5b8135610e82848260208601610e1b565b91505092915050565b600060208284031215610ea157610ea0610b58565b5b600082013567ffffffffffffffff811115610ebf57610ebe610b5d565b5b610ecb84828501610e5d565b91505092915050565b7f4e487b7100000000000000000000000000000000000000000000000000000000600052602160045260246000fd5b60028110610f1457610f13610ed4565b5b50565b6000819050610f2582610f03565b919050565b6000610f3582610f17565b9050919050565b610f4581610f2a565b82525050565b6000602082019050610f606000830184610f3c565b92915050565b60008115159050919050565b610f7b81610f66565b82525050565b600081519050919050565b600082825260208201905092915050565b60005b83811015610fbb578082015181840152602081019050610fa0565b60008484015250505050565b6000610fd282610f81565b610fdc8185610f8c565b9350610fec818560208601610f9d565b610ff581610b9d565b840191505092915050565b60006040820190506110156000830185610f72565b81810360208301526110278184610fc7565b90509392505050565b61103981610b62565b82525050565b60006020820190506110546000830184611030565b92915050565b600060408201905061106f6000830185610dac565b61107c6020830184610dac565b9392505050565b7f4e487b7100000000000000000000000000000000000000000000000000000000600052603260045260246000fd5b60006060820190506110c76000830186611030565b6110d46020830185611030565b6110e16040830184611030565b949350505050565b6000819050919050565b6110fc816110e9565b82525050565b600067ffffffffffffffff82169050919050565b61111f81611102565b82525050565b600061ffff82169050919050565b61113c81611125565b82525050565b600063ffffffff82169050919050565b61115b81611142565b82525050565b600060a08201905061117660008301886110f3565b6111836020830187611116565b6111906040830186611133565b61119d6060830185611152565b6111aa6080830184611152565b9695505050505050565b6000815190506111c381610b6c565b92915050565b6000602082840312156111df576111de610b58565b5b60006111ed848285016111b4565b91505092915050565b7f4e487b7100000000000000000000000000000000000000000000000000000000600052601160045260246000fd5b600061123082610b62565b915061123b83610b62565b9250828203905081811115611253576112526111f6565b5b92915050565b7f4e487b7100000000000000000000000000000000000000000000000000000000600052601260045260246000fd5b600061129382610b62565b915061129e83610b62565b9250826112ae576112ad611259565b5b828206905092915050565b600081905092915050565b50565b60006112d46000836112b9565b91506112df826112c4565b600082019050919050565b60006112f5826112c7565b915081905091905056fea2646970667358221220d6d02a1b3e2c5247b37c5f7796e1bff4e30c5d972d11eb737b35834da78aa42964736f6c63430008110033",
  "linkReferences": {},
  "deployedLinkReferences": {}
}