{
  "_format": "hh-sol-artifact-1",
  "contractName": "Lottery",
  "sourceName": "contracts/lottery.sol",
  "abi": [
    {
      "inputs": [
        {
          "internalType": "uint256",
          "name": "entranceFee",
          "type": "uint256"
        },
        {
          "internalType": "address",
          "name": "vrfCoodAddress",
          "type": "address"
        },
        {
          "internalType": "bytes32",
          "name": "keyHash",
          "type": "bytes32"
        },
        {
          "internalType": "uint64",
          "name": "subId",
          "type": "uint64"
        },
        {
          "internalType": "uint32",
          "name": "callBackGasLimit",
          "type": "uint32"
        },
        {
          "internalType": "uint256",
          "name": "interval",
          "type": "uint256"
        }
      ],
      "stateMutability": "nonpayable",
      "type": "constructor"
    },
    {
      "inputs": [],
      "name": "Lottery_NotOpen",
      "type": "error"
    },
    {
      "inputs": [],
      "name": "Lottery_notEnoughToken",
      "type": "error"
    },
    {
      "inputs": [],
      "name": "Lottery_transactionFailed",
      "type": "error"
    },
    {
      "inputs": [
        {
          "internalType": "uint256",
          "name": "balance",
          "type": "uint256"
        },
        {
          "internalType": "uint256",
          "name": "state",
          "type": "uint256"
        },
        {
          "internalType": "uint256",
          "name": "players",
          "type": "uint256"
        }
      ],
      "name": "Lottery_upkeepNotNeeded",
      "type": "error"
    },
    {
      "inputs": [
        {
          "internalType": "address",
          "name": "have",
          "type": "address"
        },
        {
          "internalType": "address",
          "name": "want",
          "type": "address"
        }
      ],
      "name": "OnlyCoordinatorCanFulfill",
      "type": "error"
    },
    {
      "anonymous": false,
      "inputs": [
        {
          "indexed": true,
          "internalType": "address",
          "name": "lotteryWinnerAddress",
          "type": "address"
        }
      ],
      "name": "lotteryWinner",
      "type": "event"
    },
    {
      "anonymous": false,
      "inputs": [
        {
          "indexed": true,
          "internalType": "address",
          "name": "registeredPlayers",
          "type": "address"
        }
      ],
      "name": "registeredPlayers",
      "type": "event"
    },
    {
      "anonymous": false,
      "inputs": [
        {
          "indexed": true,
          "internalType": "uint256",
          "name": "requestId",
          "type": "uint256"
        }
      ],
      "name": "requestIdReceived",
      "type": "event"
    },
    {
      "inputs": [
        {
          "internalType": "bytes",
          "name": "",
          "type": "bytes"
        }
      ],
      "name": "checkUpkeep",
      "outputs": [
        {
          "internalType": "bool",
          "name": "upKeepNeeded",
          "type": "bool"
        },
        {
          "internalType": "bytes",
          "name": "",
          "type": "bytes"
        }
      ],
      "stateMutability": "view",
      "type": "function"
    },
    {
      "inputs": [
        {
          "internalType": "uint256",
          "name": "index",
          "type": "uint256"
        }
      ],
      "name": "getAPlayer",
      "outputs": [
        {
          "internalType": "address",
          "name": "",
          "type": "address"
        }
      ],
      "stateMutability": "view",
      "type": "function"
    },
    {
      "inputs": [],
      "name": "getEntranceFee",
      "outputs": [
        {
          "internalType": "uint256",
          "name": "",
          "type": "uint256"
        }
      ],
      "stateMutability": "view",
      "type": "function"
    },
    {
      "inputs": [],
      "name": "getInterval",
      "outputs": [
        {
          "internalType": "uint256",
          "name": "",
          "type": "uint256"
        }
      ],
      "stateMutability": "view",
      "type": "function"
    },
    {
      "inputs": [],
      "name": "getLastestTimeStamp",
      "outputs": [
        {
          "internalType": "uint256",
          "name": "",
          "type": "uint256"
        }
      ],
      "stateMutability": "view",
      "type": "function"
    },
    {
      "inputs": [],
      "name": "getPlayers",
      "outputs": [
        {
          "internalType": "uint256",
          "name": "",
          "type": "uint256"
        }
      ],
      "stateMutability": "view",
      "type": "function"
    },
    {
      "inputs": [],
      "name": "getWinner",
      "outputs": [
        {
          "internalType": "address",
          "name": "",
          "type": "address"
        }
      ],
      "stateMutability": "view",
      "type": "function"
    },
    {
      "inputs": [],
      "name": "i_entranceFee",
      "outputs": [
        {
          "internalType": "uint256",
          "name": "",
          "type": "uint256"
        }
      ],
      "stateMutability": "view",
      "type": "function"
    },
    {
      "inputs": [],
      "name": "lotteryState",
      "outputs": [
        {
          "internalType": "enum Lottery.Lottery_State",
          "name": "",
          "type": "uint8"
        }
      ],
      "stateMutability": "view",
      "type": "function"
    },
    {
      "inputs": [],
      "name": "pay",
      "outputs": [],
      "stateMutability": "payable",
      "type": "function"
    },
    {
      "inputs": [
        {
          "internalType": "bytes",
          "name": "",
          "type": "bytes"
        }
      ],
      "name": "performUpkeep",
      "outputs": [],
      "stateMutability": "nonpayable",
      "type": "function"
    },
    {
      "inputs": [
        {
          "internalType": "uint256",
          "name": "requestId",
          "type": "uint256"
        },
        {
          "internalType": "uint256[]",
          "name": "randomWords",
          "type": "uint256[]"
        }
      ],
      "name": "rawFulfillRandomWords",
      "outputs": [],
      "stateMutability": "nonpayable",
      "type": "function"
    }
  ],
  "bytecode": "0x610180604052600163ffffffff166101609063ffffffff168152503480156200002757600080fd5b50604051620017893803806200178983398181016040528101906200004d9190620002a9565b848073ffffffffffffffffffffffffffffffffffffffff1660808173ffffffffffffffffffffffffffffffffffffffff1681525050508560a081815250506000600160006101000a81548160ff02191690836001811115620000b457620000b362000345565b5b02179055508473ffffffffffffffffffffffffffffffffffffffff1660c08173ffffffffffffffffffffffffffffffffffffffff16815250508361010081815250508267ffffffffffffffff166101208167ffffffffffffffff16815250508163ffffffff166101408163ffffffff16815250508060e081815250504260038190555050505050505062000374565b600080fd5b6000819050919050565b6200015d8162000148565b81146200016957600080fd5b50565b6000815190506200017d8162000152565b92915050565b600073ffffffffffffffffffffffffffffffffffffffff82169050919050565b6000620001b08262000183565b9050919050565b620001c281620001a3565b8114620001ce57600080fd5b50565b600081519050620001e281620001b7565b92915050565b6000819050919050565b620001fd81620001e8565b81146200020957600080fd5b50565b6000815190506200021d81620001f2565b92915050565b600067ffffffffffffffff82169050919050565b620002428162000223565b81146200024e57600080fd5b50565b600081519050620002628162000237565b92915050565b600063ffffffff82169050919050565b620002838162000268565b81146200028f57600080fd5b50565b600081519050620002a38162000278565b92915050565b60008060008060008060c08789031215620002c957620002c862000143565b5b6000620002d989828a016200016c565b9650506020620002ec89828a01620001d1565b9550506040620002ff89828a016200020c565b94505060606200031289828a0162000251565b93505060806200032589828a0162000292565b92505060a06200033889828a016200016c565b9150509295509295509295565b7f4e487b7100000000000000000000000000000000000000000000000000000000600052602160045260246000fd5b60805160a05160c05160e05161010051610120516101405161016051611393620003f660003960006106a00152600061067f0152600061065c0152600061063b0152600081816107f101526108b0015260006105ff0152600081816102b401528181610347015261084a015260008181610449015261049d01526113936000f3fe6080604052600436106100a75760003560e01c80636e04ff0d116100645780636e04ff0d1461019b5780637ea3e6c1146101d95780638b5b9ccc146102045780638ba05b0e1461022f5780638e7ea5b21461025a57806391ad27b414610285576100a7565b806309bc33a7146100ac5780631b9265b8146100d75780631fe543e3146100e15780634109e9de1461010a5780634585e33b146101475780636939864b14610170575b600080fd5b3480156100b857600080fd5b506100c16102b0565b6040516100ce9190610bc5565b60405180910390f35b6100df6102d8565b005b3480156100ed57600080fd5b5061010860048036038101906101039190610d79565b610447565b005b34801561011657600080fd5b50610131600480360381019061012c9190610dd5565b610507565b60405161013e9190610e43565b60405180910390f35b34801561015357600080fd5b5061016e60048036038101906101699190610f13565b61054e565b005b34801561017c57600080fd5b50610185610785565b6040516101929190610fd3565b60405180910390f35b3480156101a757600080fd5b506101c260048036038101906101bd9190610f13565b61079c565b6040516101d0929190611088565b60405180910390f35b3480156101e557600080fd5b506101ee610848565b6040516101fb9190610bc5565b60405180910390f35b34801561021057600080fd5b5061021961086c565b6040516102269190610bc5565b60405180910390f35b34801561023b57600080fd5b50610244610878565b6040516102519190610bc5565b60405180910390f35b34801561026657600080fd5b5061026f610882565b60405161027c9190610e43565b60405180910390f35b34801561029157600080fd5b5061029a6108ac565b6040516102a79190610bc5565b60405180910390f35b60007f0000000000000000000000000000000000000000000000000000000000000000905090565b600060018111156102ec576102eb610f5c565b5b600160009054906101000a900460ff16600181111561030e5761030d610f5c565b5b14610345576040517f732acd4a00000000000000000000000000000000000000000000000000000000815260040160405180910390fd5b7f000000000000000000000000000000000000000000000000000000000000000034101561039f576040517f2849030400000000000000000000000000000000000000000000000000000000815260040160405180910390fd5b6000339080600181540180825580915050600190039060005260206000200160009091909190916101000a81548173ffffffffffffffffffffffffffffffffffffffff021916908373ffffffffffffffffffffffffffffffffffffffff1602179055503373ffffffffffffffffffffffffffffffffffffffff167f4bafce225aad9a1b12c6653406881a07c12e107c8e85890a1fae0c6c73783baf60405160405180910390a2565b7f000000000000000000000000000000000000000000000000000000000000000073ffffffffffffffffffffffffffffffffffffffff163373ffffffffffffffffffffffffffffffffffffffff16146104f957337f00000000000000000000000000000000000000000000000000000000000000006040517f1cf993f40000000000000000000000000000000000000000000000000000000081526004016104f09291906110b8565b60405180910390fd5b61050382826108d4565b5050565b600080828154811061051c5761051b6110e1565b5b9060005260206000200160009054906101000a900473ffffffffffffffffffffffffffffffffffffffff169050919050565b600061058e6040518060400160405280600281526020017f307800000000000000000000000000000000000000000000000000000000000081525061079c565b509050806105fd5747600160009054906101000a900460ff1660018111156105b9576105b8610f5c565b5b6000805490506040517fa5a3fe4b0000000000000000000000000000000000000000000000000000000081526004016105f493929190611110565b60405180910390fd5b7f000000000000000000000000000000000000000000000000000000000000000073ffffffffffffffffffffffffffffffffffffffff16635d3b1d307f00000000000000000000000000000000000000000000000000000000000000007f000000000000000000000000000000000000000000000000000000000000000060037f00000000000000000000000000000000000000000000000000000000000000007f00000000000000000000000000000000000000000000000000000000000000006040518663ffffffff1660e01b81526004016106df9594939291906111bf565b6020604051808303816000875af11580156106fe573d6000803e3d6000fd5b505050506040513d601f19601f820116820180604052508101906107229190611227565b60028190555060018060006101000a81548160ff0219169083600181111561074d5761074c610f5c565b5b02179055506002547f1a705c7a00579d64029d06de9bad180b46279572d543e850b1a642d86f02edca60405160405180910390a25050565b6000600160009054906101000a900460ff16905090565b600060606000804711905060008060008054905011905060008060018111156107c8576107c7610f5c565b5b600160009054906101000a900460ff1660018111156107ea576107e9610f5c565b5b14905060007f00000000000000000000000000000000000000000000000000000000000000006003544261081e9190611283565b11905083801561082b5750825b80156108345750815b801561083d5750805b955050505050915091565b7f000000000000000000000000000000000000000000000000000000000000000081565b60008080549050905090565b6000600354905090565b6000600460009054906101000a900473ffffffffffffffffffffffffffffffffffffffff16905090565b60007f0000000000000000000000000000000000000000000000000000000000000000905090565b60008080549050826000815181106108ef576108ee6110e1565b5b602002602001015161090191906112e6565b90506000808281548110610918576109176110e1565b5b9060005260206000200160009054906101000a900473ffffffffffffffffffffffffffffffffffffffff16905080600460006101000a81548173ffffffffffffffffffffffffffffffffffffffff021916908373ffffffffffffffffffffffffffffffffffffffff16021790555060008173ffffffffffffffffffffffffffffffffffffffff16476040516109ac90611348565b60006040518083038185875af1925050503d80600081146109e9576040519150601f19603f3d011682016040523d82523d6000602084013e6109ee565b606091505b5050905080610a29576040517fe649b36700000000000000000000000000000000000000000000000000000000815260040160405180910390fd5b600067ffffffffffffffff811115610a4457610a43610c36565b5b604051908082528060200260200182016040528015610a725781602001602082028036833780820191505090505b5060009080519060200190610a88929190610b05565b50426003819055506000600160006101000a81548160ff02191690836001811115610ab657610ab5610f5c565b5b02179055508173ffffffffffffffffffffffffffffffffffffffff167f43450afea3c4fa1ac0879b13f5656d98efcb0b46541906f4a12654fb1686968e60405160405180910390a25050505050565b828054828255906000526020600020908101928215610b7e579160200282015b82811115610b7d5782518260006101000a81548173ffffffffffffffffffffffffffffffffffffffff021916908373ffffffffffffffffffffffffffffffffffffffff16021790555091602001919060010190610b25565b5b509050610b8b9190610b8f565b5090565b5b80821115610ba8576000816000905550600101610b90565b5090565b6000819050919050565b610bbf81610bac565b82525050565b6000602082019050610bda6000830184610bb6565b92915050565b6000604051905090565b600080fd5b600080fd5b610bfd81610bac565b8114610c0857600080fd5b50565b600081359050610c1a81610bf4565b92915050565b600080fd5b6000601f19601f8301169050919050565b7f4e487b7100000000000000000000000000000000000000000000000000000000600052604160045260246000fd5b610c6e82610c25565b810181811067ffffffffffffffff82111715610c8d57610c8c610c36565b5b80604052505050565b6000610ca0610be0565b9050610cac8282610c65565b919050565b600067ffffffffffffffff821115610ccc57610ccb610c36565b5b602082029050602081019050919050565b600080fd5b6000610cf5610cf084610cb1565b610c96565b90508083825260208201905060208402830185811115610d1857610d17610cdd565b5b835b81811015610d415780610d2d8882610c0b565b845260208401935050602081019050610d1a565b5050509392505050565b600082601f830112610d6057610d5f610c20565b5b8135610d70848260208601610ce2565b91505092915050565b60008060408385031215610d9057610d8f610bea565b5b6000610d9e85828601610c0b565b925050602083013567ffffffffffffffff811115610dbf57610dbe610bef565b5b610dcb85828601610d4b565b9150509250929050565b600060208284031215610deb57610dea610bea565b5b6000610df984828501610c0b565b91505092915050565b600073ffffffffffffffffffffffffffffffffffffffff82169050919050565b6000610e2d82610e02565b9050919050565b610e3d81610e22565b82525050565b6000602082019050610e586000830184610e34565b92915050565b600080fd5b600067ffffffffffffffff821115610e7e57610e7d610c36565b5b610e8782610c25565b9050602081019050919050565b82818337600083830152505050565b6000610eb6610eb184610e63565b610c96565b905082815260208101848484011115610ed257610ed1610e5e565b5b610edd848285610e94565b509392505050565b600082601f830112610efa57610ef9610c20565b5b8135610f0a848260208601610ea3565b91505092915050565b600060208284031215610f2957610f28610bea565b5b600082013567ffffffffffffffff811115610f4757610f46610bef565b5b610f5384828501610ee5565b91505092915050565b7f4e487b7100000000000000000000000000000000000000000000000000000000600052602160045260246000fd5b60028110610f9c57610f9b610f5c565b5b50565b6000819050610fad82610f8b565b919050565b6000610fbd82610f9f565b9050919050565b610fcd81610fb2565b82525050565b6000602082019050610fe86000830184610fc4565b92915050565b60008115159050919050565b61100381610fee565b82525050565b600081519050919050565b600082825260208201905092915050565b60005b83811015611043578082015181840152602081019050611028565b60008484015250505050565b600061105a82611009565b6110648185611014565b9350611074818560208601611025565b61107d81610c25565b840191505092915050565b600060408201905061109d6000830185610ffa565b81810360208301526110af818461104f565b90509392505050565b60006040820190506110cd6000830185610e34565b6110da6020830184610e34565b9392505050565b7f4e487b7100000000000000000000000000000000000000000000000000000000600052603260045260246000fd5b60006060820190506111256000830186610bb6565b6111326020830185610bb6565b61113f6040830184610bb6565b949350505050565b6000819050919050565b61115a81611147565b82525050565b600067ffffffffffffffff82169050919050565b61117d81611160565b82525050565b600061ffff82169050919050565b61119a81611183565b82525050565b600063ffffffff82169050919050565b6111b9816111a0565b82525050565b600060a0820190506111d46000830188611151565b6111e16020830187611174565b6111ee6040830186611191565b6111fb60608301856111b0565b61120860808301846111b0565b9695505050505050565b60008151905061122181610bf4565b92915050565b60006020828403121561123d5761123c610bea565b5b600061124b84828501611212565b91505092915050565b7f4e487b7100000000000000000000000000000000000000000000000000000000600052601160045260246000fd5b600061128e82610bac565b915061129983610bac565b92508282039050818111156112b1576112b0611254565b5b92915050565b7f4e487b7100000000000000000000000000000000000000000000000000000000600052601260045260246000fd5b60006112f182610bac565b91506112fc83610bac565b92508261130c5761130b6112b7565b5b828206905092915050565b600081905092915050565b50565b6000611332600083611317565b915061133d82611322565b600082019050919050565b600061135382611325565b915081905091905056fea26469706673582212202e0b02966066393026003bcba2d277c2432b99caceff6ba13b84f7476da59eb764736f6c63430008110033",
  "linkReferences": {},
  "deployedLinkReferences": {}
}